:1000000000200020F9000000C10F0000C10F000017
:10001000C10F0000C10F0000C10F00008D0F0000D4
:100020008D0F00008D0F00008D0F0000C10F00002C
:10003000C10F00008D0F0000C10F00007D0F0000F8
:10004000C10F0000C10F0000C10F0000C10F000070
:10005000C10F0000C10F0000C10F0000C10F000060
:10006000C10F0000C10F0000C10F0000C10F000050
:10007000C10F0000C10F0000C10F0000C10F000040
:100080002D240000C10F0000DD270000C10F00007B
:10009000592B0000C10F0000C10F0000C10F00006C
:1000A000C10F0000C10F0000C10F0000C10F000010
:1000B000C10F0000C10F0000C10F0000C10F000000
:1000C000C10F0000C10F0000C10F0000ED150000BE
:1000D000C10F0000C10F0000C10F0000C10F0000E0
:1000E0009D100000ED10000075110000311200009D
:1000F000B5120000C10F0000524B4CF2205210B557
:100100001A804DF628121A8000BF00BF00F05CFF75
:100110004D4B4E4A1A604E4A5A604E4B1A6812F4C2
:10012000807204D14C490A604FF4A8521A604B4BBC
:100130001A7802F00802D2B21AB11A7842F0080214
:100140001A70474B4748484C2A221A700023474AE6
:1001500002E019599950043399188142F9D3444B5C
:10016000444A002101E043F8041B9342FBD3424977
:10017000424800231A585A500433F82BFAD1404B06
:10018000404A802103F8011B9342FBD13A4A3E4B7F
:100190001A603E4B0A221A703D4B24221A70A0228C
:1001A00003F8012C3B4A137803F00203DBB2002B67
:1001B000F9D0384A137803F01003DBB2002BF9D1E1
:1001C000344A137803F00C03082BFAD1324B032284
:1001D0001A7040225A702F4A137803F02003DBB2C2
:1001E000002BF9D02B4A137803F04003DBB2002B2D
:1001F000F9D02A4B2A4A1A6002225A60294B20223F
:100200001A70244A137803F00C030C2BFAD1264AF7
:10021000264B1A60264B274A1A60072243F8042C03
:1002200062B601F0DFF80C4B1B68DC0702D52248F0
:1002300001F058F802F074FE00F0CCFE01F0D2FE9E
:10024000FEE700BF0E20054038800440823F0400D6
:100250000100002B10D0034014D0034002D007400F
:1002600000E0074008E6FF1FAC34000060E5FF1F18
:1002700008E6FF1FF4EFFF1F00E1FF1F0000000072
:1002800000E400E02EE400E008ED00E0005006404D
:1002900001400640064006400440064044800440B9
:1002A0000000030100400640C01005000480044027
:1002B00014E000E0FF7601003FF26856FFFFFFFF09
:1002C000FFFFFFFFFFFFFFFFFFFFFFFFFFFFFFFF3E
:1002D000FFFFFFFFFFFFFFFFFFFFFFFFFFFFFFFF2E
:1002E000FFFFFFFFFFFFFFFFFFFFFFFFFFFFFFFF1E
:1002F000FFFFFFFFFFFFFFFFFFFFFFFFFFFFFFFF0E
:10030000FFFFFFFFFFFFFFFFFFFFFFFFFFFFFFFFFD
:10031000FFFFFFFFFFFFFFFFFFFFFFFFFFFFFFFFED
:10032000FFFFFFFFFFFFFFFFFFFFFFFFFFFFFFFFDD
:10033000FFFFFFFFFFFFFFFFFFFFFFFFFFFFFFFFCD
:10034000FFFFFFFFFFFFFFFFFFFFFFFFFFFFFFFFBD
:10035000FFFFFFFFFFFFFFFFFFFFFFFFFFFFFFFFAD
:10036000FFFFFFFFFFFFFFFFFFFFFFFFFFFFFFFF9D
:10037000FFFFFFFFFFFFFFFFFFFFFFFFFFFFFFFF8D
:10038000FFFFFFFFFFFFFFFFFFFFFFFFFFFFFFFF7D
:10039000FFFFFFFFFFFFFFFFFFFFFFFFFFFFFFFF6D
:1003A000FFFFFFFFFFFFFFFFFFFFFFFFFFFFFFFF5D
:1003B000FFFFFFFFFFFFFFFFFFFFFFFFFFFFFFFF4D
:1003C000FFFFFFFFFFFFFFFFFFFFFFFFFFFFFFFF3D
:1003D000FFFFFFFFFFFFFFFFFFFFFFFFFFFFFFFF2D
:1003E000FFFFFFFFFFFFFFFFFFFFFFFFFFFFFFFF1D
:1003F000FFFFFFFFFFFFFFFFFFFFFFFFFFFFFFFF0D
:10040000FFFFFFFFFFFFFFFFFFFFFFFFFEFFFFFFFD
:1004100008B54EF20860074BC1F6FF701B1A062B99
:1004200000D808BD40F20003C0F20003002BF8D052
:100430009847F6E70BE6FF1F08B54EF208604EF24C
:100440000863C1F6FF70C1F6FF731B1A9B1003EB24
:10045000D373591000D108BD40F20002C0F200026F
:10046000002AF8D09047F6E710B54EF20864C1F6BE
:10047000FF74237873B9FFF7CBFF40F20003C0F29B
:1004800000032BB143F2AC40C0F20000AFF3008098
:100490000123237010BD00BF08B540F20003C0F275
:1004A00000034BB143F2AC404EF20C61C0F20000CD
:1004B000C1F6FF71AFF300804EF20860C1F6FF7025
:1004C00003682BB140F20003C0F2000303B1984768
:1004D000BDE80840B0E700BF4069704700207047A2
:1004E00013B503681C6800230A468DF800308DF8A8
:1004F00001308DF802308DF804308DF805308DF81C
:100500000630694601ABA0471CBD4FF4C870704768
:1005100010B501210446062000F014FF1023A3614A
:10052000014BE36110BD00BFC0F00F4038B5044679
:1005300008460D4600F078FD2368024629465B68B0
:10054000204698470546204601F054FD281838BD3E
:100550000278C943C9B212FB01F21212027042784A
:1005600012FB01F212124270827812FB01F10912A1
:10057000817070470C4B0360FF23037343738373D5
:10058000C3730374437401238374084B00224260D5
:10059000426182601A6802B91860054A136803B1A3
:1005A00098601060704700BFE031000094ECFF1FBE
:1005B000A4ECFF1F70B51F4B1F4C30221A7023682C
:1005C00013F001060DD1204600F006FD48B11B4D89
:1005D0002846FFF7CFFF1A4B2E8420462B6000F0F1
:1005E00001FD0023174915484FF4007200F04EFC3E
:1005F00000214FF4C062134802F078FD062001216B
:1006000000F0A0FE64214FF4C0620E4802F06EFDBF
:100610000D4A0848002313600C4A017813600C4A05
:10062000137000F0D3FB4FF4FA70BDE8704000F097
:10063000C3BE00BF84ECFF1F24E6FF1F28E6FF1F98
:10064000C03100005DE6FF1F60ECFF1F50E6FF1F9A
:100650005DECFF1F2DE9F0430024134D99464FF048
:10066000030C264699F80070E719FF0594FBFCF887
:10067000FF0D0CFB18480CFB07F7B8F1010F05EB59
:10068000070308D0B8F1020F15BFE855EE555E70AC
:1006900059709E7002E0EE555E709A700134B4F5A8
:1006A000007FDFD1BDE8F0835DE6FF1F094B0A48FC
:1006B00010B50122094C1A7032214FF4C06202F0C9
:1006C00015FD20460649FFF731FF20460549FFF793
:1006D0002DFF10BD5DECFF1F5DE6FF1F2CEEFF1F21
:1006E000F83100000432000010B514780B780CB11A
:1006F000013300E0013B0B700B780BB90123137041
:100700000B78834201D10023137010BD30B5B1FBCB
:10071000F2F500FB0213541E02FB15125200A21A3E
:1007200000F0010000FB023030BDFFFF2DE9F84F63
:100730000A9EDFF84C8017461C4601EB030900EBCC
:10074000020A4FF0030B15E01022134628462146FB
:10075000FFF7DCFF96F800C07178B2780BFB00F071
:1007600008EB000308F800C059709A700135554530
:10077000EADB01344C4501DA3D46F8E7BDE8F88F85
:100780005DE6FF1F30B585B00388002403ADADF8EA
:100790000C30042010212246234600958DF80D4090
:1007A0008DF80E40FFF7C2FF042108200A462346B9
:1007B0000095FFF7BBFF042108200A460C23009593
:1007C000FFF7B4FF0095042010210C222346FFF709
:1007D000ADFF05B030BD1FB583784BB18DF80E303D
:1007E00000238DF80D308DF80C3003AB009300E042
:1007F00000900620052201461346FFF797FF05B03B
:1008000000BD07B5027800901AB10C200146022203
:1008100001E0102001461346FFF788FF0EBD10B51A
:100820000446FFF7AFFF2046FFF7EBFF2046BDE889
:100830001040FFF7D0BFFFFF0A4A70B50023032620
:1008400006FB03F503F5807474435019555D1119C7
:1008500015550133447880784C70B3F5807F8870EB
:10086000EED170BD5DE6FF1FF0B53B4D3B4A2B68F6
:100870003B4C87B00393039B53603A4A63605360D9
:10088000394A536001F0A2FA03284CDD2B68374F38
:1008900005930024059E029402AB1819C4F10401CB
:1008A00001F0A2FA2418032C09D82B680493049AA7
:1008B000BB68921B9A42EFD32C4B01221A739DF80E
:1008C0000830012B04D12A4B1B780BB9FFF7EEFE41
:1008D000254B93E80600511A202936D99DF80900C6
:1008E0001A609DF80A109DF80B208DF80400C828A6
:1008F0008DF805108DF8062003D91E4BFFF7AAFED0
:1009000002E001A8FFF78BFFFFF796FF154B93E876
:100910000600511A402918D91A6002201549164AB2
:10092000FFF7E2FE11E094E80C009A1A0A2A10D9A7
:10093000124D23600326002406FB045002210134DB
:10094000FFF706FEB4F5007FF6D10D48017800F000
:100950003DFA07B0F0BD00BF34EDFF1F6CECFF1F88
:1009600078ECFF1F50E6FF1F60ECFF1F2CEEFF1F0F
:100970005DECFF1F5CE6FF1F5EECFF1F5DE6FF1FE7
:1009800084ECFF1F10B5044600F0F8FC2388C01A61
:1009900083B2312BF8D910BDA94B2DE9F74F1A6856
:1009A000A84942F080721A60A74B1A6842F001020F
:1009B0001A6000230B60A54B1A681A6822F0100217
:1009C0001A60437A027BD21A036842725B7813B1D1
:1009D00083FA52F3DBB290F80F8013FB08F34FEA6F
:1009E000132872B6974B0E68984C78361D462246EF
:1009F0001F461AE190F80BC0017AC1EB0C0101729D
:100A000090F80CC0417AC1EB0C01417290F80DC016
:100A1000817AC1EB0C01817272B61968B14205D9B5
:100A20001968891BB1F5935F00D903E1216841F092
:100A3000100C21684FF0070921F01001D3F800A035
:100A4000B245FBD31E68C4F800C0783618F0800F9A
:100A500007D0D5F800A0CAEB060ABAF12C0FF8D8D7
:100A600006E0D5F800A0CAEB060ABAF1680FF8D87C
:100A70004FEA4808B9F1010911605FFA88F8DDD141
:100A8000D3F80090B145FBD32E68C4F800C0783687
:100A900018F0800F07D0D7F80080C8EB0608B8F12F
:100AA0002C0FF8D806E0D7F80080C8EB0608B8F19C
:100AB000680FF8D8D0F80090116099F80080B8F16C
:100AC000000F05D090F808A088FA5AF85FFA88F865
:100AD00090F80EA018FB0AF84FEA18284FF0070A02
:100AE000D3F800B0B345FBD31E68C4F800C0783615
:100AF00018F0800F07D0D5F800B0CBEB060BBBF198
:100B00002C0FF8D806E0D5F800B0CBEB060BBBF104
:100B1000680FF8D84FEA4808BAF1010A11605FFA85
:100B200088F8DDD1D3F800A0B245FBD32E68C4F815
:100B300000C0783618F0800F07D0D7F80080C8EBD7
:100B40000608B8F12C0FF8D806E0D7F80080C8EBFB
:100B50000608B8F1680FF8D8116099F80280B8F16A
:100B6000000F05D090F80AA088FA5AF85FFA88F8C2
:100B700090F810A018FB0AF84FEA18284FF0070A5F
:100B8000D3F800B0B345FBD31E68C4F800C0783674
:100B900018F0800F07D0D5F800B0CBEB060BBBF1F7
:100BA0002C0FF8D806E0D5F800B0CBEB060BBBF164
:100BB000680FF8D84FEA4808BAF1010A11605FFAE5
:100BC00088F8DDD1D3F800A0B245FBD32E68C4F875
:100BD00000C0783618F0800F07D0D7F800C0CCEBF3
:100BE000060CBCF12C0FF8D806E0D7F800C0CCEB0F
:100BF000060CBCF1680FF8D81160417C894401995A
:100C0000C0F8009001F1FF3CC0F804C099F8011051
:100C100021B190F809C081FA5CF1C9B290F80F8057
:100C200011FB08F14FEA112862B6416800290191D1
:100C30003FF7E0AE62B6034B1868BDE8FE8F00BF19
:100C4000FCED00E0041000E0001000E0C0F00F40F8
:100C500030B5194B1A780132D2B202F0070119707F
:100C600002F0020112F0010FC9B20CBF0023802371
:100C700019B1002B14BFC023402302F00402D2B2EA
:100C80000AB143F020031033D9B200224FF480742C
:100C9000837B1BB194FBF3F30133DBB211FB03F550
:100CA0002D12C37205720BB1013BC37201320130C8
:100CB000032AEDD130BD00BF4CE6FF1F012908B566
:100CC00002D1FFF7C5FF08BD002242730273C27252
:100CD00082724272027208BD30B587B0857C029282
:100CE0001A7801918DF812205A789B788DF813208C
:100CF0002946044601A88DF81430FFF7DFFF0023D2
:100D000004F120008DF81530FFF73CFE01A8FFF735
:100D100043FE00F033FB208407B030BD30B587B010
:100D2000857C02921A7801918DF812205A789B786E
:100D30008DF813202946044601A88DF81430FFF7DA
:100D4000BDFF032304F120008DF81530FFF71AFED4
:100D500001A8FFF721FE00F011FB208407B030BD91
:100D600070B5002404704470847061B1165D1D5D1F
:100D700036B12DB10136013575434D432D0C055566
:100D80000134032CF2D170BD0D4B73B51C68621C8D
:100D90008C421A6012DB0B4C216800910A49009EBC
:100DA0004FF47A756A430D68751BB2FBF5F2428009
:100DB00000221A6023680193019B0B607CBD00BF79
:100DC00098ECFF1F34EDFF1FA0ECFF1F2DE9F74F3C
:100DD000224C05460E466B68002B34D000F0CEFA4C
:100DE00023686A68C01A9042F5D32CE03046A9689F
:100DF000984706461A4B4FF0000A1C681CE06B88A7
:100E000094F812B0D4F80490D4F81480632B2368BB
:100E100098BF84F812A05F6804F10C0204F10F037C
:100E200001A83146FFF79CFF20464946424601ABE8
:100E3000B84784F812B0A468002CE0D128461921E4
:100E4000FFF7A2FF07E000F099FA044B1860EB6887
:100E5000002BCBD1CEE7BDE8FE8F00BF9CECFF1F7F
:100E600094ECFF1F4AB169B1074B93FBF1F1436862
:100E70008B422CBF43604160704711B1024B93FB22
:100E8000F1F14160704700BF40420F00F8B5002B00
:100E900004460F4602DC1546002601E016461D46B4
:100EA000236820469B689847032303FB0676236844
:100EB00066605B69656120469847012201460248E9
:100EC000FFF7D0FF2046F8BD84ECFF1F044BFF2244
:100ED0001A7000225A80DA604FF0FF329A60704731
:100EE00084ECFF1F1C4B60221A70E1225A701B4BCE
:100EF0001B4A19781B4B082901D1012102E00A295C
:100F000003D139211160132206E00C2901D13521CA
:100F100000E03D21116012221A60134B1A78134B26
:100F200002B101221A60124B1A78124B012A01D821
:100F300080220CE0042A01D8842208E0082A01D883
:100F4000852204E0102A01D8862200E087221A6058
:100F5000094B01221A7070470040074060E5FF1FEF
:100F600008B003400CB00340A9ECFF1F20B00340C1
:100F700061E5FF1F24B00340A8ECFF1F024B1A6875
:100F800001321A60704700BF34EDFF1F38B50B4CBB
:100F900025462368580301D500F028FB2B68590526
:100FA00001D501F043FA2B681A0501D501F016FCB2
:100FB0002368DB04EDD501F0CFFDEAE7348004407F
:100FC00008B5FFF7E3FFFFFF014B10221A807047BF
:100FD000002005407047FEE70078D0F1010038BFDF
:100FE00000207047012303707047FFFFEFF3138366
:100FF0009BB9EFF3108098B9EFF3058323B10F2B62
:1010000004D9084A985C01E04FF48070EFF3118333
:101010003BB1984228BF184670474FF0FF307047E9
:1010200018467047F0E300E0002300E00133C25CA3
:10103000002AFBD11846704710B50023B0FBF2F42C
:1010400002FB1400092801D8303000E03730C854C2
:1010500020460CB10133F1E7CA185470224605E06E
:10106000885CCC5C8C54C8540132013B9A42F7DB5B
:10107000084610BD084B4FF480721A604FF400729E
:101080001A604FF480621A604FF400621A604FF4E5
:1010900080521A60704700BF04E100E0114B10B5A8
:1010A0001C68E0041C6004D50F4BDA680AB1DB68E9
:1010B0009847A10404D50C4B1A690AB11B699847DB
:1010C000A20604D5084B1A6E0AB11B6E9847E306B8
:1010D00006D5054BD3F8842012B1D3F88430984755
:1010E00010BD00BFA0900440ACECFF1F1F4B10B51B
:1010F0001C68E0031C6004D51D4B1A680AB11B680C
:101100009847A10304D51A4B5A680AB15B689847FF
:10111000E20704D5164B1A6C0AB11B6C9847A3075B
:1011200004D5134B5A6C0AB15B6C9847200704D561
:101130000F4B9A6C0AB19B6C9847610704D50C4B16
:10114000DA6C0AB1DB6C9847220304D5084B5A6E5F
:101150000AB15B6E9847630306D5054BD3F8802030
:1011600012B1D3F88030984710BD00BFA0A0044052
:10117000ACECFF1F2C4B10B51C6820071C6004D57D
:101180002A4B5A6A0AB15B6A9847E10604D5274B95
:101190009A6A0AB19B6A9847620604D5234BDA6AB9
:1011A0000AB1DB6A9847230604D5204B1A6B0AB1B3
:1011B0001B6B9847A00604D51C4B5A6B0AB15B6B9E
:1011C0009847E10704D5194BDA6B0AB1DB6B9847F6
:1011D000A20704D5154B9A6D0AB19B6D984763071A
:1011E00004D5124BDA6D0AB1DB6D9847A00504D522
:1011F0000E4BDA6E0AB1DB6E9847E10504D50B4B56
:101200001A6F0AB11B6F9847620504D5074B5A6FD6
:101210000AB15B6F9847230504D5044B9A6F0AB156
:101220009B6F984710BD00BFA0B00440ACECFF1FFF
:101230001E4B10B51C68E0071C6004D51C4B9A6857
:101240000AB19B689847210604D5194B5A690AB11F
:101250005B699847E20604D5154B9A690AB19B6908
:101260009847630704D5124BDA690AB1DB699847DE
:10127000200704D50E4B1A6A0AB11B6A9847A107CA
:1012800004D50B4B9A6B0AB19B6B9847A20604D509
:10129000074B1A6D0AB11B6D9847630604D5044BC2
:1012A0005A6D0AB15B6D984710BD00BFA0C00440E5
:1012B000ACECFF1F094B10B51C68A2071C6004D5DD
:1012C000074B9A6E0AB19B6E9847E30704D5044B0F
:1012D000DA6F0AB1DB6F984710BD00BFA0D00440A1
:1012E000ACECFF1F044B054900221A600A60044A57
:1012F000106010221A60704714D0034004D00340DD
:1013000000D00340212810B518D80D4A52F83030CB
:1013100093F880423CB1012211B183F8802010BDC6
:1013200083F8002110BD02EBC00043681A6811B1B8
:1013300042F0030201E022F002021A6010BD00BF79
:101340000C320000212816D80B4A02EBC0030129F9
:101350005B6852F8302004D182F880124FF4A272F8
:1013600008E0002082F8800211B94FF4807201E099
:1013700040F203121A6070470C32000072B60B4B39
:101380000B491A680B4B1B68096862B6490102D504
:10139000322A88BF0133C2F5BB32FF326021B2FB73
:1013A000F1F24FF47A7000FB0320704718E000E080
:1013B00004ED00E034EDFF1F70B50446FFF7DEFFDB
:1013C00005466CB140F2E736FFF7D8FF401BB0424C
:1013D00003D9013C04D005F57A7500F037FEF3E738
:1013E00070BDFFFF10B5FFF745FE124B124A134CBC
:1013F00000204BF6FF71186059602823136093603A
:1014000013619361136293621363936309222260F1
:101410000B4C20600B4801600B490B608B600B4B41
:101420001A60FFF75FFD0420FFF7C6FFBDE810401C
:1014300000F0F8BB048003400C80034000800340B0
:1014400004900340089003400C9003400090034038
:10145000F0B50C4B0C4C1A7842F0020504EBC506B3
:1014600082F00102706009481A700678002E0CBFE5
:101470008827C82747EA014186F0010644F835105D
:101480000670F0BDA0EDFF1F00E0FF1F18EEFF1F6C
:10149000431E032B10B510D872B6094A52F8230028
:1014A00048B1416842F82310064A018832F81340D7
:1014B000611A22F8131062B610BD002010BD00BFE3
:1014C00090EDFF1FE4EFFF1F013803280BD872B621
:1014D000064B53F82030002001E05B680130002B00
:1014E000FBD162B670470020704700BFE4EDFF1FDC
:1014F00070B572B6184E194C01239A1912F8012CC6
:1015000002F00802D2B2E2B19900144A54F8315004
:101510002DB902EB431308305860114B09E041F03C
:10152000010154F8315065B902EBC103083058602D
:101530000C4B42F831300C4B1A78013A1A7062B6F3
:1015400070BD0133052BD8D162B6074B00221A704B
:10155000BDE8704000F0D2BB4033000000E0FF1F48
:1015600088004000C80040000EEEFF1F431E032B02
:1015700030B532D84001194A40F01000101872B648
:10158000174CE25C032A09D8DFE802F016021805BE
:101590000830022213E00830042210E01148124AF9
:1015A00050F8234014B940F8231002E052F8230009
:1015B000416042F823100FE0032200E00522E254CC
:1015C00010F0080F01F108030A8843600CBF88235C
:1015D000C82343EA0243036062B630BD00E0FF1F48
:1015E0004CEDFF1FE4EDFF1FF4EDFF1F2DE9F74F5A
:1015F000A54EA64C357805F00403DBB2ABB1A44B85
:101600001B7883B1A34A137823B1013BDBB213707B
:1016100003B900BEA04A13782BB1013BDBB21370B3
:101620000BB900F0BDFC0423337005F00802D2B200
:10163000002A00F08082994B1B781D094FEA93091C
:1016400040F0FE8104EBC903586854F83930C3F305
:101650008303013B0C2B00F2F081DFE813F0A901BA
:10166000A901EE01EE01EE01EE01EE01EE01C50170
:10167000EE01EE01EE010D004368894902684B60FE
:10168000884B894844F83930884D0A60002303604C
:101690000120287092B240F28165AA422361A361C1
:1016A00017D8B2F5D06F80F02C81B2F5817F00F0B1
:1016B000DC8006D8802A00F0C280822A40F03D817A
:1016C000C1E040F202339A4200F00C81B2F5A06F03
:1016D00016E042F22105AA4200F0678108D8B2F56F
:1016E000086F00F0A680B2F5106F40F026810AE086
:1016F00042F22120824200F01C8142F221339A42C0
:1017000040F01B811DE18A78614B604D1A702B6A95
:10171000180603D5686A083800F0F0FA644A0835FC
:101720009542F4D1DFF8B091DFF8B0B10025A846BA
:10173000CA4655F8090005E04368009300F0DEFA58
:10174000009B18460028F7D15A4B4AF8050045F887
:101750000B00E85807E042680093019200F0CEFACF
:10176000019A009B10460028F5D15851524BE85081
:10177000524B23F81800524B18F80320023A032A60
:1017800008D8DFE802F002040204002200E001228F
:1017900003F8082008F101080435B8F1040FC8D196
:1017A000484BDFF83C9100221A7001259846464BC1
:1017B00005EB0902EB1812F8012C9B001A7002F0DD
:1017C0000802D2B23AB300F07BFAAB0038B104EBB6
:1017D0004512083050603D4A44F8332006E044F892
:1017E000330098F80030013388F8003000F068FAD0
:1017F000AB0043F0010338B104EBC3020830506082
:10180000284A44F8332006E044F8330098F80030C2
:10181000013388F80030AA0042F00201013542F09D
:1018200003020023052D44F8313044F83230BED194
:1018300088E0174B264D1B782B70034685E0244D1E
:101840002B706B7080E08A88042A00D975E0204DE7
:101850002B706B701F4B9200D3181B7803F00203A0
:10186000DBB2002B70D028706EE08A8802F07F0314
:10187000042B62DC4B8803B15FE09100154A8A18A3
:10188000117821F0020156E08020074000E0FF1FA0
:1018900017EEFF1FA1EDFF1F19EEFF1F902007405D
:1018A00004EEFF1FC800400038EDFF1F18EEFF1FB9
:1018B00080E0FF1FE4EDFF1FF4EDFF1FE4EFFF1FCB
:1018C0004CEDFF1F0EEEFF1F30C8011088004000D6
:1018D0000FEEFF1FC020074090EDFF1F3CEDFF1FE4
:1018E000403300008A8802F07F03042B25DC4B88FC
:1018F00003B122E09100A14A8A18117841F0020157
:1019000019E04A889E4B898853F8085CA3F10C00C3
:101910009DB133F80CCC944509D133F80ACC8C45F1
:1019200005D1120A032A0CBF2B7803890DE00C3372
:10193000EAE78978934A117004E0904B0F221A70FD
:1019400033E000231D4600E002238F4AB2F80690E0
:101950004B4538BF9946B9F1400F34BFC8464FF0E8
:10196000400828464146FFF773FDB9EB0809454496
:1019700003D1B8F1400F07D017E0B9F1400F34BFE1
:10198000C8464FF0400800E0C84628464146FFF7E9
:101990005FFDB9EB0809454402D1B8F1400F04D10D
:1019A0007A4B7B4A1D60A2F800900122794B43E0FC
:1019B000754B1A8842F221039A4211D1764A0023CC
:1019C000C15C99540133072BFAD1734B1B68862BEA
:1019D00002D1724B0F221A7000200146FFF738FD2A
:1019E0006F4B44F8393028E0684BD3F80080B8F1E9
:1019F000000F18D0DFF89891B9F800A0BAF1400FA5
:101A000034BF5546402540462946FFF721FDC5EB2A
:101A10000A039BB2A9F800300BB9402D01D108EBA5
:101A200005035A4A1360584B1A88B2F5A06F04D1C7
:101A300000225A709A785B4B1A700122554B6DE068
:101A400004EBC90803F00803D8F80420013DD9B21B
:101A5000A2F10800EDB2002937D000F04FF952484A
:101A6000524B50F82510F1B14A6840F8252001F199
:101A70000802C8F804205A5D032A0BD8DFE802F0F8
:101A800002040608032204E0022202E0052200E02C
:101A900004225A5518F0080F0A880CBF8823C8235F
:101AA00043EA024342E05A5D032A07D8DFE802F026
:101AB00040400204002206E0012204E018F0080F72
:101AC0000CBF022203225A5532E054F839301B0C65
:101AD00022F8083C23B322F8061C42F8041C344ABE
:101AE000344952F8257017B942F8250002E051F840
:101AF00025205060304A41F8250032F815105B1857
:101B000022F8153000F0DCF818B10830C8F80400ED
:101B100006E02A4B44F839001A7801321A7007E0BF
:101B20001F4B274A18F0080F08BF134644F83930F6
:101B3000082333705EE5E90752D516492048214C49
:101B400002230B70204B1A70204B186098602048BD
:101B50001A61D8609A615C60084B0D2018701D48AE
:101B6000FF23037000F8083C02741B4A13701B4BE0
:101B70009F221A7001230B704BE000BFC02007406A
:101B80005033000028EEFF1F04EEFF1F38EDFF1F4B
:101B90000CEEFF1F94200740ECEFFF1FA1EDFF1F8D
:101BA000C800400098200740E4EDFF1F4CEDFF1FE8
:101BB00090EDFF1F3CEDFF1FE4EFFF1F0EEEFF1F38
:101BC0008800400050EDFF1FA0EDFF1F00E0FF1F49
:101BD000A4EDFF1F882007408C2007408420074089
:101BE0002B0605D50C4B0D221A70802203F8402CD1
:101BF00005F00203DBB22BB1084B1A781A700222EF
:101C000003F8082C05F01005EDB215B1044B1022B5
:101C10001A70BDE8FE8F00BFC02007408820074033
:101C20008020074008B500F0EDFF00231D491A464B
:101C30005A50C8180833882B4260F9D11A4B1A68D9
:101C400042F480221A60194B80221A701978174AC0
:101C50000906FBD4134B1649C3F307200870C3F3DE
:101C600007401B0E08750B76FF2301F81C3C01F89A
:101C7000143C01F88C3C137843F0400313700021AE
:101C8000012302F8783C02F80C1C02F8883C094B4E
:101C900070221A70084B08221A60084B10221A7022
:101CA00008BD00BF00E0FF1F348004400C21074046
:101CB0009C20074023E400E004E100E00821074005
:101CC00072B60C4A1168B1FA81F30B2B02D962B6D5
:101CD000002070474FF0004020FA03F021EA000195
:101CE000116062B6044948225343C8180022CA5002
:101CF0004260704764E5FF1F00E2FF1F0C4B482263
:101D0000C31AB3FBF2F30B2B11D80A4A127822B193
:101D1000094A12780AB1FFF7EBBB72B6074A4FF0D7
:101D2000004121FA03F311681943116062B670474C
:101D300000E2FF1F0EEEFF1F17EEFF1F64E5FF1FFF
:101D400038B5114C23684BB10F4D28684288811873
:101D500001320C7A01888A4212D30CE00B4B1B78BB
:101D600013B94FF0FF340CE00320FFF791FB206024
:101D70000028E9D1F5E7FFF7C1FF00232B6000E061
:101D80004280204638BD00BF24EEFF1F17EEFF1F24
:101D900010B50C4C23681BB10A4B1B686BB902E0F1
:101DA000094B1B7813B94FF0FF3010BD0320FFF72C
:101DB0006FFB20600028EFD1F5E75A889B18187A4E
:101DC00010BD00BF24EEFF1F17EEFF1F044B9888C5
:101DD000044B1B681BB11A885B88D31AC018704764
:101DE000E4EFFF1F24EEFF1F2DE9F0470E4681466A
:101DF0004FF00008DFF868A0184F2AE09AF800308A
:101E00004BB33B684BB90320FFF742FB386010B37C
:101E1000038813B9FFF772FFF5E73C6861882588EE
:101E20006D1AAE4238BF3546083148462A46611819
:101E300001F0A2F86388A944A844761BED18238812
:101E4000ADB2AB42658004D82046FFF757FF0023B0
:101E50003B60002ED2D14046BDE8F08724EEFF1F44
:101E600017EEFF1F2DE9F8432D4B2E4DDFF8C080F4
:101E700001220C461A7006464BE02B682BBBDFF89C
:101E8000A0904AF2F92798F8003013B9244A137049
:101E900014E00420FFF718FB072808D8012389F86D
:101EA0000030FFF70DFF286078B989F80000013F86
:101EB0001D4B01D01A782AB101221A704FF0FF3061
:101EC000BDE8F88300F0C2F8DDE72968164A4888C3
:101ED00000231370C0F14002944238BF224600F143
:101EE00008078018CF194880A41A02E0F05CF85463
:101EF00001339342FAD1F6184B883F2B06D9402381
:101F00000B800420FFF732FB00232B60074B0522D8
:101F10001A70002CB1D1024B20461C70BDE8F8832A
:101F20001AEEFF1F1CEEFF1F20EEFF1F19EEFF1F12
:101F300017EEFF1F07B502AB012103F8010D18468C
:101F4000FFF790FF0EBDFFFFF8B5114B1B78EBB10B
:101F5000104E114B3468114D01271F704CB163882E
:101F600000272F70042023802146FFF7FFFA3760F7
:101F700009E0FFF7A5FE014620B104202C70FFF711
:101F8000F5FA00E02F70044B00221A70F8BD00BF74
:101F900017EEFF1F1CEEFF1F1AEEFF1F19EEFF1FAB
:101FA00038B50D4B1D78ADB90C4C216831B14B885B
:101FB00004200B80FFF7DAFA256038BDFFF780FEBA
:101FC000014620B10420BDE83840FFF7CFBA044BEA
:101FD00001221A7038BD00BF1AEEFF1F1CEEFF1F52
:101FE00019EEFF1F08B5FEF7E5FAFEF73DFC00F01D
:101FF0002DF8FAE707B5054B1B88ADF804300368E8
:1020000001A95B68022298470EBD00BF1C33000087
:1020100008461146FFF726BF0846FFF78BBFFFF7BC
:1020200093BFFFF7B5BEFFF78BBEFFF7CFBE70477C
:10203000044B00221A711A73034A4FF47A719960A3
:102040001A6070472CEEFF1F2833000008B50E4BB6
:102050001A78C2B901221A70FFF7B8FE08B1FFF76B
:10206000E6FF00F08BF908B100F066FE00F070FBAF
:1020700008B100F0D3FE00F029FD08B100F040FFE8
:10208000014B00221A7008BD3CEEFF1F194B1A6865
:1020900042F480621A60184A00231370174A1370C2
:1020A000174A1370174A1370174A1370174B40F2F0
:1020B00013321A604FF451725A60154BC0F3443218
:1020C0001A70C0F347125A7000F01F000422022158
:1020D00098729A70D9745A7588221A743C22DA70F0
:1020E0000C4B40221A70A3F544734FF480321A60EF
:1020F000704700BF34800440BFEEFF1F3EEEFF1F5D
:10210000C8EEFF1FC0EEFF1F3DEEFF1F40A00440C2
:1021100000A0064010E400E0134A937800F00301A9
:1021200003F0EC030B43410748BF43F010039370E7
:1021300000F00F03042B0C4903D18B7943F04003CB
:102140008B715379C20603F0EF03074A48BF43F08F
:10215000100353719379810603F0EF0348BF43F0F6
:1021600010039371704700BF00A006400E4B1B6820
:10217000580510B503D410BDFFF768FF00E00B4C05
:102180002378002BF8D10A4A4FF480311160094AB4
:102190000949D37040F203120A604A60074A13707B
:1021A000074A137010BD00BF348004403DEEFF1F8E
:1021B00080E100E000A0064040A00440BFEEFF1F09
:1021C0003EEEFF1F38B5094B04461D78002DFCD1AB
:1021D00020460121FFF7B6F820462946FFF792F87E
:1021E000034B53F83420034B1A6038BD3DEEFF1FFC
:1021F0000C320000C4EEFF1F1D4B1B685A052DE971
:10220000F041074631D51B4B1B680BB101221A70F8
:10221000194B1A4D1C781A4EDFF8688001343F2C98
:1022200088BF002414E0FEF7E1FE40280CDC33797F
:102230001B060DD52B7801333F2B88BF002318F8E0
:102240000320F2712B7003E0FF2801DDFFF7FEFE93
:102250002B78A342E7D00B4B1F550B4B01221A7072
:10226000054B1C70064BBC22DA70BDE8F08100BF44
:1022700034800440C4EEFF1FC8EEFF1FC0EEFF1FF6
:1022800000A006403FEEFF1F3DEEFF1F2DE9F84F77
:10229000254B1B6806465805894642D5234B1B68CB
:1022A0000BB101221A70224DB346AA4632E0214BEF
:1022B0001C782F7801343F2C88BF0024A74209D016
:1022C0001BF8012B1C4B1A551C4B01221A70194B81
:1022D0001C701FE01A4BBC22DA709846FEF786FE8F
:1022E00040280FDC98F8043019060FD52B78124AD5
:1022F00001333F2B88BF0023D25C88F807208AF87F
:10230000003003E0FF2801DDFFF7A0FE2B78BB4281
:10231000E4D0D5E706EB09039B45C8D3084BBC22A4
:10232000DA70BDE8F88F00BF34800440C4EEFF1FB0
:10233000C0EEFF1FC8EEFF1F3FEEFF1F3DEEFF1F69
:1023400000A0064010B5044C01E0FFF77FFE2378A3
:10235000002BFAD110BD00BF3DEEFF1F054B064A12
:102360001B781078834201D33F3000E00138C01A57
:10237000704700BFC8EEFF1FC0EEFF1F044B187868
:10238000044B1B78984238BF4030C01A704700BFDA
:10239000BFEEFF1F3EEEFF1F084B094A1978137866
:1023A000994207D001333F2B88BF00230549C85C01
:1023B000137070474FF0FF30704700BFBFEEFF1F34
:1023C0003EEEFF1F7FEEFF1F074B1A78074B1B786F
:1023D0009A4206D001333F2B88BF0023044AD05CC9
:1023E00070474FF0FF307047BFEEFF1F3EEEFF1FFC
:1023F0007FEEFF1F094B1B685B050ED5084BDA7893
:1024000002F0CB02DA7040225A74DA7842F03402D9
:10241000DA70044B1A78044B1A7070473480044009
:1024200000A006403EEEFF1FBFEEFF1F70B52D4B14
:102430001A7912F0300F1DD072B6997D21B9DA7970
:1024400040225A7462B615E062B6274A27481278CD
:10245000274D00781C46531C3F2B88BF0023E6798C
:1024600083421CBFEE541A46013911F0FF01F2D12C
:102470001D4B1A701B4AD37819465BB2002B1BDA2E
:102480001379180618D51B4B1B4C1D781B4B1B785A
:10249000AB4209D001333F2B88BF00231079E05CA9
:1024A000D071107D0728F3D9144A13700D4B1A7997
:1024B000120601D57C22DA7001F04003DBB27BB159
:1024C000084B1A7902F04002D2B2194642B10C4BC5
:1024D00000221A700B4B1B6803B11A703C23CB709F
:1024E00070BD00BF00A00640BFEEFF1F3EEEFF1F05
:1024F0007FEEFF1FC8EEFF1F3FEEFF1FC0EEFF1F66
:102500003DEEFF1FC4EEFF1F164B1A6842F4006237
:102510001A60154A00231370144A1370144A13707A
:10252000144A1370144A1370144A40F213311160A4
:102530004FF451715160124AC0F344311170C0F32D
:10254000471100F01F0051709072937013742C2388
:10255000D3700C4B40221A700B4B4FF480221A6040
:10256000704700BF3480044033EFFF1FCAEEFF1FE7
:102570003CEFFF1F34EFFF1FC9EEFF1F0CB00440FC
:1025800000B0064012E400E000E100E0134A937856
:1025900000F0030103F0EC030B43410748BF43F095
:1025A0001003937000F00F03042B0C4903D18B79B7
:1025B00043F040038B715379C20603F0EF03074ADF
:1025C00048BF43F0100353719379810603F0EF0382
:1025D00048BF43F010039371704700BF00B006403E
:1025E0000E4B1B68180510B503D410BDFFF72EFD68
:1025F00000E00B4C2378002BF8D10A4A4FF48021DD
:102600001160094A0949D37040F203120A604A6016
:10261000074A1370074A137010BD00BF348004408E
:10262000C9EEFF1F80E100E000B006400CB004409E
:1026300033EFFF1FCAEEFF1F38B5094B04461D7864
:10264000002DFCD120460121FEF77CFE20462946C4
:10265000FEF758FE034B53F83420034B1A6038BD85
:10266000C9EEFF1F0C32000038EFFF1F1D4B1B6827
:102670001A052DE9F041074631D51B4B1B680BB1FC
:1026800001221A70194B1A4D1C781A4EDFF8688017
:102690000134272C88BF002414E0FEF7A7FC402853
:1026A0000CDC33791B060DD52B780133272B88BF23
:1026B000002318F80320F2712B7003E0FF2801DDDE
:1026C000FFF7C4FC2B78A342E7D00B4B1F550B4BF5
:1026D00001221A70054B1C70064BAC22DA70BDE863
:1026E000F08100BF3480044038EFFF1F3CEFFF1F34
:1026F00034EFFF1F00B00640CBEEFF1FC9EEFF1FF7
:1027000038B54518044603E014F8010BFFF7AEFF97
:10271000AC42F9D138BDFFFF10B5044C01E0FFF722
:1027200095FC2378002BFAD110BD00BFC9EEFF1F26
:10273000054B064A1B781078834201D3273000E00E
:102740000138C01A704700BF3CEFFF1F34EFFF1F76
:10275000044B1878044B1B78984238BF4030C01A9D
:10276000704700BF33EFFF1FCAEEFF1F084B094A37
:1027700019781378994207D001333F2B88BF002383
:102780000549C85C137070474FF0FF30704700BFB9
:1027900033EFFF1FCAEEFF1FF3EEFF1F074B1A7840
:1027A000074B1B789A4206D001333F2B88BF00238A
:1027B000044AD05C70474FF0FF30704733EFFF1F83
:1027C000CAEEFF1FF3EEFF1F024B1A78024B1A707E
:1027D000704700BFCAEEFF1F33EFFF1F10B5214B3C
:1027E0001A7902F02002D2B26AB11F4AD8791F4981
:1027F0001378097801333F2B88BF00238B4202D026
:102800001B49C8541370174AD37818465BB2002B83
:1028100013DA1379190610D5164B17491C780B7863
:102820009C4202D16C23D37007E00133272B88BF71
:102830000023124CE45CD4710B7000F04003DBB257
:102840007BB1084B1A7902F04002D2B2194642B16C
:102850000B4B00221A700B4B1B6803B11A702C2310
:10286000CB7010BD00B0064033EFFF1FCAEEFF1F54
:10287000F3EEFF1F3CEFFF1F34EFFF1FCBEEFF1FF8
:10288000C9EEFF1F38EFFF1F164B1A6842F4805243
:102890001A60154A00231370144A1370144A1370F7
:1028A000144A1370144A1370144A40F21331116021
:1028B0004FF451715160124AC0F344311170C0F3AA
:1028C000471100F01F0051709072937013742C2305
:1028D000D3700C4B40221A70A3F545734FF480124D
:1028E0001A60704734800440A7EFFF1F3EEFFF1FC0
:1028F000B0EFFF1FA8EFFF1F3DEFFF1F08C0044010
:1029000000C0064014E400E0134A937800F003018D
:1029100003F0EC030B43410748BF43F010039370EF
:1029200000F00F03042B0C4903D18B7943F04003D3
:102930008B715379C20603F0EF03074A48BF43F097
:10294000100353719379810603F0EF0348BF43F0FE
:1029500010039371704700BF00C006400E4B1B6808
:10296000D80410B503D410BDFFF770FB00E00B4C8A
:102970002378002BF8D10A4A4FF480111160094ADC
:102980000949D37040F203120A604A60074A137083
:10299000074A137010BD00BF348004403DEFFF1F95
:1029A00080E100E000C0064008C00440A7EFFF1F20
:1029B0003EEFFF1F38B5094B04461D78002DFCD1B2
:1029C00020460121FEF7BEFC20462946FEF79AFC70
:1029D000034B53F83420034B1A6038BD3DEFFF1F03
:1029E0000C320000ACEFFF1F1D4B1B68DA042DE911
:1029F000F041074631D51B4B1B680BB101221A7001
:102A0000194B1A4D1C781A4EDFF868800134272CB8
:102A100088BF002414E0FEF7E9FA40280CDC337983
:102A20001B060DD52B780133272B88BF002318F800
:102A30000320F2712B7003E0FF2801DDFFF706FB96
:102A40002B78A342E7D00B4B1F550B4B01221A707A
:102A5000054B1C70064BAC22DA70BDE8F08100BF5C
:102A600034800440ACEFFF1FB0EFFF1FA8EFFF1F43
:102A700000C006403FEFFF1F3DEFFF1F38B5451870
:102A8000044603E014F8010BFFF7AEFFAC42F9D1A6
:102A900038BDFFFF10B5044C01E0FFF7D7FA2378EB
:102AA000002BFAD110BD00BF3DEFFF1F054B064ABA
:102AB0001B781078834201D3273000E00138C01A18
:102AC000704700BFB0EFFF1FA8EFFF1F044B18783F
:102AD000044B1B78984238BF4030C01A704700BF83
:102AE000A7EFFF1F3EEFFF1F084B094A1978137825
:102AF000994207D001333F2B88BF00230549C85CAA
:102B0000137070474FF0FF30704700BFA7EFFF1FF3
:102B10003EEFFF1F67EFFF1F074B1A78074B1B782D
:102B20009A4206D001333F2B88BF0023044AD05C71
:102B300070474FF0FF307047A7EFFF1F3EEFFF1FBA
:102B400067EFFF1F024B1A78024B1A70704700BFE5
:102B50003EEFFF1FA7EFFF1F10B5214B1A7902F0C0
:102B60002002D2B26AB11F4AD8791F491378097876
:102B700001333F2B88BF00238B4202D01B49C8542E
:102B80001370174AD37818465BB2002B13DA137907
:102B9000190610D5164B17491C780B789C4202D1A8
:102BA0006C23D37007E00133272B88BF0023124C1E
:102BB000E45CD4710B7000F04003DBB27BB1084BD6
:102BC0001A7902F04002D2B2194642B10B4B0022F0
:102BD0001A700B4B1B6803B11A702C23CB7010BDFD
:102BE00000C00640A7EFFF1F3EEFFF1F67EFFF1F6C
:102BF000B0EFFF1FA8EFFF1F3FEFFF1F3DEFFF1FCD
:102C0000ACEFFF1F1FB572B6154B70221A70154A34
:102C1000412111700F2102F8011C80221A701A78CC
:102C20001206FCD5104B186862B6104B984201D8BA
:102C30000A23584301A90A22FEF7FEF90C48002393
:102C400001AA9A5C2AB100EB430101330A2B4A80A6
:102C5000F6D10133064A5B00137005B000BD00BF1A
:102C60000000024007000240080002407F969800E2
:102C7000F0E5FF1F08B50368C9B21B68984708BD97
:102C800008B50368C9B21B68984708BD08B5036852
:102C9000C9B21B68984708BD08B50368C9B21B686C
:102CA000984708BD084608B5FFF7A6FA012008BDF9
:102CB000084608B5FFF7A0FA012008BD38B5084658
:102CC0000D46FEF7B1F9044621462846FFF7DEFA25
:102CD000204638BD10B5084614461146FFF7D6FA0F
:102CE000204610BDFFF73ABBFFF784BBFFF72ABBB6
:102CF000FFF752BBFFF768BBFFF740BB0846FFF783
:102D000061BAFFF733BA480800F1376000F5D830F0
:102D1000B0FBF1F0FFF7BAB9480800F1376010B521
:102D200000F5D830B0FBF1F01446FFF7AFF92046BC
:102D3000BDE81040FFF7F0B97047FFFF044B0022D9
:102D40001A711A73034A4FF47A7199601A607047C6
:102D5000B4EFFF1FA033000008B50368C9B21B68B9
:102D6000984708BD08B50368C9B21B68984708BDF5
:102D700008B50368C9B21B68984708BD08B5036861
:102D8000C9B21B68984708BD084608B5FFF76EFC36
:102D9000012008BD084608B5FFF768FC012008BD02
:102DA00038B508460D46FEF73FF904462146284649
:102DB000FFF7A6FC204638BD10B50846144611465C
:102DC000FFF79EFC204610BDFFF7B2BCFFF7FCBC2E
:102DD000FFF7A2BCFFF7CABCFFF7E0BCFFF7B8BC27
:102DE0000846FFF729BCFFF7FBBB480800F1376036
:102DF00000F5D830B0FBF1F0FFF786BB480800F1D2
:102E0000376010B500F5D830B0FBF1F01446FFF78D
:102E10007BFB2046BDE81040FFF7B8BB7047FFFFC3
:102E2000044B00221A711A73034A4FF47A719960A5
:102E30001A607047C4EFFF1FF033000008B5036845
:102E4000C9B21B68984708BD08B50368C9B21B68BA
:102E5000984708BD08B50368C9B21B68984708BD04
:102E600008B50368C9B21B68984708BD084608B58D
:102E7000FFF7BAFD012008BD084608B5FFF7B4FD0D
:102E8000012008BD38B508460D46FEF7CDF80446CA
:102E900021462846FFF7F2FD204638BD10B508460A
:102EA00014461146FFF7EAFD204610BDFFF7FEBDB0
:102EB000FFF748BEFFF7EEBDFFF716BEFFF72CBECB
:102EC000FFF704BE0846FFF775BDFFF747BD48088A
:102ED00000F1B76000F55840B0FBF1F0FFF7D4BC4B
:102EE000480800F1B76010B500F55840B0FBF1F0AC
:102EF0001446FFF7C9FC2046BDE81040FFF704BDAB
:102F00007047FFFF044B00221A711A73034A4FF4F3
:102F10007A7199601A607047D4EFFF1F4034000047
:102F200070B543F2944643F29445C0F20006C0F2F5
:102F30000005761BB61007D0043D002455F8043F69
:102F400001349847A642F9D143F2AC4643F2944586
:102F5000C0F20006C0F20005761B00F095FAB6102C
:102F600008D0043D002455F8043F01349847A64298
:102F7000F9D170BD70BD00BF032A2DE9F00F09D84B
:102F80002AB10023CC5CC45401339342FAD1BDE88A
:102F9000F00F7047830702440ED0441C4D1C15F8F7
:102FA000017C04F00306234601342946013504F868
:102FB000027C002EF3D100E0034611F003046DD033
:102FC000D71A0D1B032F2E6819DDC4F1040C4FEA2C
:102FD000C4081C1D4FEACC0C55F8047FC4EB020951
:102FE000234604310434B9F1030F26FA08FA07FA2C
:102FF0000CFB3E464BEA0A0744F8087CECDC9A429C
:10300000C5D901330131013211F8014C01330131CD
:10301000934203F8024CF7D1B9E70C6840334031D2
:1030200043F8404C51F83C4C43F83C4C51F8384C78
:1030300043F8384C51F8344C43F8344C51F8304C88
:1030400043F8304C51F82C4C43F82C4C51F8284C98
:1030500043F8284C51F8244C43F8244C51F8204CA8
:1030600043F8204C51F81C4C43F81C4C51F8184CB8
:1030700043F8184C51F8144C43F8144C51F8104CC8
:1030800043F8104C51F80C4C43F80C4C51F8084CD8
:1030900043F8084C51F8044C43F8044CD41A3F2C24
:1030A000BBDC11E00C681033103143F8104C51F8C0
:1030B0000C4C43F80C4C51F8084C43F8084C51F8B0
:1030C000044C43F8044CD41A0F2CEBDC032C96DD93
:1030D0001C1D0D1D55F8047C161B2346294604347F
:1030E0000435032E44F8087CF4DC88E7032AC9B2CF
:1030F00070B408D82AB10346121803F8011B934292
:10310000FBD170BC70478307024409D0441C04F013
:103110000305234604F8011C0134002DF7D100E01B
:103120000346D51A01EB01243F2D04EB04442CDDAA
:103130001C604033D51A43F83C4C3F2D43F8384CC3
:1031400043F8344C43F8304C43F82C4C43F8284CAB
:1031500043F8244C43F8204C43F81C4C43F8184CDB
:1031600043F8144C43F8104C43F80C4C43F8084C0B
:1031700043F8044CDCDC08E01C601033D51A43F83B
:103180000C4C43F8084C43F8044C0F2DF4DC032D91
:1031900008DD1D1D561B45F8044C032E2B4605F17A
:1031A0000405F7DC9A42ACD90133013203F8011C63
:1031B00001339342FAD1A4E70000000000000000B0
:1031C000D90C00001D0D000011050000E1040000F5
:1031D000D90400000B050000000000000000000002
:1031E000D70F0000D70F0000D70F0000D70F000047
:1031F000D9040000DD040000444959417564656349
:1032000074726100312E312E300A00FF4008FE43F7
:1032100040A004404408FE4344A004400018FE437C
:1032200000C004403000FE43309004403400FE43B0
:10323000349004401C18FE431CC004401018FE4388
:1032400010C004400818FE4308C004400C18FE4398
:103250000CC004400C10FE430CB004401010FE43A0
:1032600010B004401810FE4318B004401C10FE4378
:103270001CB004401410FE4314B004400418FE4374
:1032800004C004400010FE4300B004400008FE43A8
:1032900000A004400408FE4304A004400C08FE43C0
:1032A0000CA004400808FE4308A004401418FE4384
:1032B00014C004401818FE4318C004400410FE4314
:1032C00004B004400810FE4308B004401400FE435C
:1032D000149004404C08FE434CA004400420FE43DC
:1032E00004D004402410FE4324B004402010FE43C8
:1032F00020B004402810FE4328B004402C10FE43A8
:103300002CB004400020FE4300D004404808FE4397
:1033100048A004401000FE43109004400D0AFFFF37
:103320000000000000000000192000001120000033
:103330002B20000027200000232000001F20000079
:10334000001519150001000068E5FF1F12000000BC
:103350000002000092E5FF1F430000000003000090
:10336000ECE5FF1F00000000010309047AE5FF1FE0
:103370000000000002030904D6E5FF1F0000000062
:1033800003030904F0E5FF1F000000000000000037
:10339000000000000000000000000000000000002D
:1033A000B12C0000D52C0000F92C0000F12C0000FD
:1033B000F52C0000ED2C0000072D0000192D000059
:1033C000032D0000FD2C0000E92C0000E52C00007E
:1033D000752C0000812C00008D2C0000992C000021
:1033E000BD2C0000A52C0000000000000000000023
:1033F000952D0000B92D0000DD2D0000D52D000019
:10340000D92D0000D12D0000EB2D0000FD2D000076
:10341000E72D0000E12D0000CD2D0000C92D00009A
:10342000592D0000652D0000712D00007D2D00003C
:10343000A12D0000892D0000000000000000000008
:10344000792E00009D2E0000C12E0000B92E000034
:10345000BD2E0000B52E0000CF2E0000E12E000092
:10346000CB2E0000C52E0000B12E0000AD2E0000B6
:103470003D2E0000492E0000552E0000612E000058
:10348000852E00006D2E0000F8B500BFF8BC08BC0A
:103490009E46704799040000CD0E000031200000C8
:0C34A0003D2D0000212E0000052F000033
:1034AC000A040000FFFFFFFF1201000202000040AF
:1034BC00C0168304000101020301180354006500C7
:1034CC0065006E00730079006400750069006E0081
:1034DC006F0009024300020100C032090400000120
:1034EC00020201000524001001052401010104243D
:1034FC00020605240600010705820310004009049A
:10350C000100020A00000007050302400000070545
:10351C0084024000000016035500530042002000B6
:10352C00530065007200690061006C00040309041B
:10353C000C03000000000000000000000000000070
:08354C00000000000000000077
:00000001FF
